:100000000C9466000C948E000C948E000C948E0060
:100010000C948E000C948E000C948E000C948E0028
:100020000C948E000C948E000C948E000C948E0018
:100030000C948E000C948E000C948E000C948E0008
:100040000C9457030C948E000C94C7030C94A103DA
:100050000C948E000C948E000C948E000C948E00E8
:100060000C948E000C948E001112131415160A0BAA
:100070000C0D0E0F00010203040500000008000231
:100080000100000304070000000000000000000061
:100090000000250028002B0000000000240027009D
:1000A0002A000404040404040404020202020202FA
:1000B000030303030303010204081020408001022C
:1000C00004081020010204081020F90311241FBEA7
:1000D000CFEFD8E0DEBFCDBF21E0A2E3B1E001C0A9
:1000E0001D92A73FB207E1F711E0A0E0B1E0E0E028
:1000F000FEE002C005900D92A233B107D9F710E0DF
:10010000C6E6D0E004C02197FE010E94EA06C5368B
:10011000D107C9F70E943F040C94FE060C9400001E
:1001200090E0FC01EA54FF4F2491FC01EE55FF4F93
:100130008491882399F090E0880F991FFC01E8567C
:10014000FF4FA591B491FC01E257FF4F8591949127
:100150008FB7F894EC91E22BEC938FBF089590E069
:10016000FC01E658FF4F2491FC01EA54FF4F349103
:10017000FC01EE55FF4FE491EE2309F43CC022232D
:1001800039F1233091F038F42130A9F0223001F513
:1001900084B58F7D12C0273091F02830A1F0243033
:1001A000B9F4809180008F7D03C0809180008F77AB
:1001B000809380000DC084B58F7784BD09C0809185
:1001C000B0008F7703C08091B0008F7D8093B00026
:1001D000F0E0EE0FFF1FE257FF4FA591B4919FB7DC
:1001E000F894611104C08C913095382302C0EC91D1
:1001F0003E2B3C939FBF08959CB59F7D9CBD9CB5B5
:10020000937F9CBD9CB59C7F9CBD9DB591609DBD21
:10021000682F8091E1010E94AF008091F3019091DD
:10022000F4018230910538F0880F991F880F991FCB
:1002300005970197F1F708953FB7F89480913E0133
:1002400090913F01A0914001B091410126B5A89B3A
:1002500005C02F3F19F00196A11DB11D3FBFBA2F58
:10026000A92F982F8827820F911DA11DB11DBC01B8
:10027000CD0142E0660F771F881F991F4A95D1F77D
:1002800008958F929F92AF92BF92CF92DF92EF929A
:10029000FF926B017C010E941C014B015C01C114A7
:1002A000D104E104F104F1F00E941C01DC01CB0156
:1002B00088199909AA09BB09883E9340A105B1058F
:1002C00070F321E0C21AD108E108F10888EE880E27
:1002D00083E0981EA11CB11CC114D104E104F104F7
:1002E00019F7DDCFFF90EF90DF90CF90BF90AF90E8
:1002F0009F908F900895CF92DF92EF92FF920F938D
:100300001F93CF93DF936C017A018B01C0E0D0E0A3
:10031000CE15DF0581F0D8016D918D01D601ED91EB
:10032000FC910190F081E02DC6010995892B11F017
:100330002196EECF7E01C701DF91CF911F910F91E2
:10034000FF90EF90DF90CF900895089580E090E0C7
:100350000895FC01538D448D252F30E0842F90E0CB
:10036000821B930B541710F0CF96089501970895B0
:10037000FC01918D828D981761F0828DDF01A80FAD
:10038000B11D5D968C91928D9F5F9F73928F90E0CF
:1003900008958FEF9FEF0895FC01918D828D98173E
:1003A00031F0828DE80FF11D858D90E008958FEF7B
:1003B0009FEF0895FC01918D228D892F90E0805C44
:1003C0009F4F821B91098F739927089582E491E0D2
:1003D0000E94DA0121E0892B09F420E0822F0895A0
:1003E000FC01848DDF01A80FB11DA35ABF4F2C91D2
:1003F000848D90E001968F739927848FA689B789A1
:100400002C93A089B1898C91837080648C93938D97
:10041000848D981306C00288F389E02D80818F7D3A
:1004200080830895EF92FF920F931F93CF93DF93F2
:10043000EC0181E0888F9B8D8C8D981305C0E88935
:10044000F989808185FD26C0F62E0B8D10E00F5FA7
:100450001F4F0F731127E02E8C8DE8120CC00FB6C2
:1004600007FCFACFE889F989808185FFF5CFCE01B5
:100470000E94F001F1CF8B8DFE01E80FF11DE35AD0
:10048000FF4FF0829FB7F8940B8FEA89FB89808138
:1004900080620AC09FB7F894EE89FF896083E8897B
:1004A000F98980818370806480839FBF81E090E0C0
:1004B000DF91CF911F910F91FF90EF900895CF930F
:1004C000DF93EC01888D8823C9F0EA89FB8980815C
:1004D00085FD05C0A889B9898C9186FD0FC00FB62E
:1004E00007FCF5CF808185FFF2CFA889B9898C916F
:1004F00085FFEDCFCE010E94F001E7CFDF91CF91D4
:10050000089580E090E0892B29F00E94E601811196
:100510000C94000008958EBD00000DB407FEFDCFC1
:100520008EB50895CF9380E00E94FC0081EE0E947A
:100530008B02C82F81E00E94FC008C2FCF91089580
:10054000CF93C82F80E00E94FC008C2F8F710E94F7
:100550008B028FEF0E948B02C82F81E00E94FC006B
:100560008C2FCF910895CF93DF93C82FD62F80E0A3
:100570000E94FC008C2F8F7180620E948B02C82F1A
:100580008D2F0E948B0281E00E94FC008C2FDF9156
:10059000CF91089580E00E94A00281FD0BC0682FDA
:1005A000626080E00E94B30265E070E080E090E06D
:1005B0000C9441010895EF92FF920F931F93CF93F4
:1005C000DF93182F7B01C42F80E00E94FC00812F55
:1005D0008F7180620E948B02D82F8701CC2339F063
:1005E000F80181918F010E948B02C150F7CF81E009
:1005F0000E94FC008D2FDF91CF911F910F91FF90F2
:10060000EF900895009769F0FC0101900020E9F750
:100610003197AF01481B590BBC0182E491E00C9467
:100620007B0180E090E008958F929F92AF92BF92FD
:100630000F931F93CF93DF93CDB7DEB7A1970FB67C
:10064000F894DEBF0FBECDBF19A2423008F44AE0D5
:100650008E010F5D1F4F842E912CA12CB12CA50172
:1006600094010E94C806E62FB901CA010150110980
:10067000EA3014F4E05D01C0E95CD801EC93232B6F
:10068000242B252B61F7C8010E940203A1960FB607
:10069000F894DEBF0FBECDBFDF91CF911F910F91B8
:1006A000BF90AF909F908F9008950E94F0061F9288
:1006B0000F920FB60F9211242F933F938F939F9316
:1006C000AF93BF9380913A0190913B01A0913C017F
:1006D000B0913D013091390123E0230F2D3720F4F3
:1006E0000196A11DB11D05C026E8230F0296A11D8C
:1006F000B11D2093390180933A0190933B01A0935F
:100700003C01B0933D0180913E0190913F01A09149
:100710004001B09141010196A11DB11D80933E01A0
:1007200090933F01A0934001B0934101BF91AF91DD
:100730009F918F913F912F910F900FBE0F901F901F
:1007400018951F920F920FB60F9211242F933F937B
:100750004F935F936F937F938F939F93AF93BF93C9
:10076000EF93FF9382E491E00E94F001FF91EF91FB
:10077000BF91AF919F918F917F916F915F914F91B9
:100780003F912F910F900FBE0F901F9018951F92C1
:100790000F920FB60F9211242F938F939F93EF9385
:1007A000FF93E0915201F09153018081E091580153
:1007B000F091590182FD12C0908180915B018F5FA1
:1007C0008F7320915C01821751F0E0915B01F0E0A2
:1007D000EE5BFE4F958F80935B0101C08081FF919E
:1007E000EF919F918F912F910F900FBE0F901F90BF
:1007F0001895E2E4F1E01382128288EE93E0A0E023
:10080000B0E084839583A683B7838AE091E09183E7
:10081000808385EC90E09587848784EC90E09787CF
:10082000868780EC90E0918B808B81EC90E0938BBD
:10083000828B82EC90E0958B848B86EC90E0978B9A
:10084000868B118E128E138E148EEFEDF1E087E001
:1008500090E09183808388E090E093838283168286
:1008600080E28783108685E0868785E090E0A0E0BF
:10087000B0E0848B958BA68BB78B11860895CF93B0
:10088000DF9300D0CDB7DEB7789484B5826084BDA5
:1008900084B5816084BD85B5826085BD85B5816084
:1008A00085BD80916E00816080936E001092810002
:1008B00080918100826080938100809181008160BD
:1008C000809381008091800081608093800080917E
:1008D000B10084608093B1008091B000816080930A
:1008E000B00080917A00846080937A0080917A00D1
:1008F000826080937A0080917A00816080937A0090
:1009000080917A00806880937A001092C100E09113
:100910005201F091530182E08083E0914E01F09109
:100920004F011082E0915001F09151018FEC8083D2
:1009300010925A01E0915601F091570186E08083B0
:10094000E0915401F0915501808180618083E091B4
:100950005401F0915501808188608083E0915401B9
:10096000F0915501808180688083E0915401F0917D
:10097000550180818F7D80838091DF019091E0011E
:100980002091E1013091E2018217930711F00E945A
:1009900090008091E1019091E2012091DF0130917E
:1009A000E0012817390711F00E9490001FB7F89452
:1009B00080913201811124C0ECEAF0E08491E0ECF6
:1009C000F0E09491E82FF0E0EE0FFF1FE856FF4FA4
:1009D000A591B491EC91E92321F461E08AE00E94B1
:1009E000AF008AE00E9490008CB580618CBD8CB510
:1009F00080648CBD8DE00E9490008BE00E9490008E
:100A0000809132018F5F809332011FBF8091DF019F
:100A10009091E0012091E1013091E201821793076A
:100A200019F060E00E94AF0081E00E94FC0065E0E8
:100A300070E080E090E00E9441016CE080E00E9464
:100A4000B3026FE584E00E94B30286E00E94A00238
:100A5000877D182F10628BE990E0A0E0B0E08093D2
:100A6000EF019093F001A093F101B093F201612F97
:100A700086E00E94B30286E00E94A002181709F4E3
:100A8000DEC086E00E94A00286E00E94A00245E54A
:100A900050E060E070E04093EF015093F00160930C
:100AA000F1017093F201682F677D86E00E94B30226
:100AB00086E00E94A00280E00E94FC0080E50E9487
:100AC0008B0283E70E948B0281E00E94FC0060E0C1
:100AD0008DE10E94B30260E08CE10E94B3021092AB
:100AE000E70160E787E00E94B3026CE485E00E94C2
:100AF000B30280E00E94FC0082EE0E948B0281E043
:100B00000E94FC000E9492020E94CA0280E00E94A1
:100B1000A002682F6E7F80E00E94B3024091ED0139
:100B200050E060E071E088EE91E00E94F506EEE6AC
:100B3000F0E084914091ED0160E071E00E94DB0201
:100B4000E8E6F0E084916091E6010E94B30282E061
:100B50000E94A00204E710E0F801949161E070E0C7
:100B600001C0660F9A95EAF7682B82E00E94B302F3
:100B700086E00E94A002887F682F656086E00E9460
:100B8000B3020E94CA0280E00E94A002682F616046
:100B900080E00E94B30260E787E00E94B302809188
:100BA000DF019091E0012091E1013091E201821793
:100BB000930719F061E00E94AF008091E80188235B
:100BC00041F04091ED0168EE71E08AE00E94DB02A5
:100BD00011C082E00E94A002F801049121E030E0FF
:100BE00001C0220F0A95EAF72095622F682382E060
:100BF0000E94B3028DE10E94A00281FD0E94920238
:100C000082E00E94900005E0EE24E394F12C87E15D
:100C10000E94A00280FD06C087E10E94A00280FF22
:100C200012C004C060E082E00E94AF0064E670E0A1
:100C300080E090E00E9441010E948102E8CF81E0C3
:100C40008093E5011ECF1A8219821091E6011230BD
:100C500018F082E0B82E01C0B12E8091E701811119
:100C600002C01B1901C010E080E00E94FC0081E678
:100C70000E948B02CE0101964C01BA949FEFB916E7
:100C800039F08FEF0E948B02F40181934F01F5CF71
:100C9000112329F08FEF0E948B021150F9CF81E0D0
:100CA0000E94FC0060E787E00E94B3028FB7F894CF
:100CB00040903A0150903B0160903C0170903D01A2
:100CC0008FBF89809A80F4E68F169104B4F58091E5
:100CD000350190913601A0913701B0913801B301EF
:100CE000A201481B590B6A0B7B0B089DC001099D93
:100CF000900D1124092E000CAA0BBB0B48175907A5
:100D00006A077B07B8F04092350150923601609235
:100D10003701709238018091330190913401892B11
:100D200029F4F0923401E092330104C010923401AE
:100D3000109233016091330101C060E082E00E94B3
:100D4000AF0088E191E00E940203092C000CAA0880
:100D5000BB08B7FE0EC06DE282E491E00E94120271
:100D600066277727CB01681979098A099B094AE028
:100D700003C04AE0C501B4010E94140383E291E07C
:100D80000E9402034AE0C301B2010E94140344CF4F
:100D9000A1E21A2EAA1BBB1BFD010DC0AA1FBB1F7F
:100DA000EE1FFF1FA217B307E407F50720F0A21BF1
:100DB000B30BE40BF50B661F771F881F991F1A945E
:100DC00069F760957095809590959B01AC01BD0188
:100DD000CF010895EE0FFF1F0590F491E02D0994C7
:100DE00081E090E0F8940C94FE06FB01DC0102C067
:100DF00001900D9241505040D8F70895F894FFCFDC
:100E00003030303033000000000012027B01A901B5
:100E10005F02DA01B801CC0144697374616E6365E5
:100E20003A20002074696D6520456C6170736564BB
:020E30002000A0
:107800000C94343C0C94513C0C94513C0C94513CE1
:107810000C94513C0C94513C0C94513C0C94513CB4
:107820000C94513C0C94513C0C94513C0C94513CA4
:107830000C94513C0C94513C0C94513C0C94513C94
:107840000C94513C0C94513C0C94513C0C94513C84
:107850000C94513C0C94513C0C94513C0C94513C74
:107860000C94513C0C94513C11241FBECFEFD8E036
:10787000DEBFCDBF11E0A0E0B1E0ECE9FFE702C060
:1078800005900D92A230B107D9F712E0A2E0B1E065
:1078900001C01D92AD30B107E1F70E942D3D0C945F
:1078A000CC3F0C94003C982F959595959595959582
:1078B000905D8F708A307CF0282F295A8091C0000B
:1078C00085FFFCCF9093C6008091C00085FFFCCF60
:1078D0002093C6000895282F205DF0CF982F809127
:1078E000C00085FFFCCF9093C6000895EF92FF92F1
:1078F0000F931F93EE24FF2487018091C00087FD22
:1079000017C00894E11CF11C011D111D81E4E8164B
:1079100082E4F8068FE0080780E0180770F3E09132
:107920000401F091050109958091C00087FFE9CF1E
:107930008091C6001F910F91FF90EF9008950E94D3
:10794000763C982F8091C00085FFFCCF9093C600B5
:1079500091362CF490330CF09053892F089597555D
:10796000892F08951F930E949F3C182F0E949F3CCF
:107970001295107F810F1F9108951F93182F882350
:1079800021F00E94763C1150E1F71F9108951F935A
:10799000182F0E94763C803249F0809103018F5F5E
:1079A000809303018530C1F01F9108958091C0003C
:1079B00085FFFCCF84E18093C6008091C00085FFE5
:1079C000FCCF1093C6008091C00085FFFCCF80E102
:1079D0008093C6001F910895E0910401F091050184
:1079E00009951F9108950E94763C803241F0809164
:1079F00003018F5F80930301853081F008958091AA
:107A0000C00085FFFCCF84E18093C6008091C00058
:107A100085FFFCCF80E18093C6000895E0910401CA
:107A2000F09105010995089540E951E08823A1F0FE
:107A30002D9A28EE33E0FA013197F1F721503040CA
:107A4000D1F72D9828EE33E0FA013197F1F7215064
:107A50003040D1F7815061F708953F924F925F9285
:107A60006F927F928F929F92AF92BF92CF92DF924E
:107A7000EF92FF920F931F93CF93DF93000080E16B
:107A80008093C4001092C50088E18093C10086E015
:107A90008093C2005098589A259A81E00E94143D24
:107AA00024E1F22E9EE1E92E85E9D82E0FE0C02ECA
:107AB00010E1B12EAA24A394B1E49B2EA6E58A2E50
:107AC000F2E57F2EE0E26E2E79E4572E63E5462E36
:107AD00050E5352E0E94763C8033B1F18133B9F107
:107AE000803409F46FC0813409F476C0823409F41B
:107AF00085C0853409F488C0803531F1823521F1A3
:107B0000813511F1853509F485C0863509F48DC0BC
:107B1000843609F496C0843709F403C1853709F423
:107B200072C1863709F466C0809103018F5F80932C
:107B30000301853079F6E0910401F0910501099582
:107B40000E94763C803351F60E94F33CC3CF0E94E2
:107B5000763C803249F78091C00085FFFCCFF092DF
:107B6000C6008091C00085FFFCCF9092C600809136
:107B7000C00085FFFCCF8092C6008091C00085FFC9
:107B8000FCCF7092C6008091C00085FFFCCF609250
:107B9000C6008091C00085FFFCCF5092C600809146
:107BA000C00085FFFCCF4092C6008091C00085FFD9
:107BB000FCCF3092C6008091C00085FFFCCFB09210
:107BC000C60088CF0E94763C863808F4BDCF0E945C
:107BD000763C0E94F33C7ECF0E94763C803809F4CC
:107BE0009CC0813809F40BC1823809F43CC1883942
:107BF00009F48FC080E00E94C73C6CCF84E10E94F2
:107C0000BD3C0E94F33C66CF85E00E94BD3C0E94D3
:107C1000F33C60CF0E94763C809306010E94763C44
:107C2000809307010E94F33C55CF0E94763C80333D
:107C300009F41DC183E00E94BD3C80E00E94C73C66
:107C400049CF0E94763C809309020E94763C809343
:107C5000080280910C028E7F80930C020E94763C79
:107C6000853409F415C18091080290910902892B8D
:107C700089F000E010E00E94763CF801E85FFE4FDA
:107C800080830F5F1F4F80910802909109020817AF
:107C9000190788F30E94763C803209F045CF809125
:107CA0000C0280FF01C16091060170910701660F0F
:107CB000771F7093070160930601A0910802B091AD
:107CC00009021097C9F0E8E0F1E09B01AD014E0F09
:107CD0005F1FF999FECF32BD21BD819180BDFA9A17
:107CE000F99A2F5F3F4FE417F50799F76A0F7B1F4B
:107CF00070930701609306018091C00085FFFCCF5F
:107D0000F092C6008091C00085FFFCCFB092C60003
:107D1000E1CE83E00E94C73CDDCE82E00E94C73CFA
:107D2000D9CE0E94763C809309020E94763C8093D3
:107D300008028091060190910701880F991F909386
:107D40000701809306010E94763C853409F4A6C0A1
:107D500080910C028E7F80930C020E94763C8032D0
:107D600009F0B8CE8091C00085FFFCCFF092C6002C
:107D7000609108027091090261157105B9F140E046
:107D800050E080910C02A82FA170B82FB27011C0E2
:107D9000BB2309F45CC0E0910601F0910701319624
:107DA000F0930701E09306014F5F5F4F46175707B7
:107DB000E8F4AA2369F3F999FECF209106013091E6
:107DC000070132BD21BDF89A90B58091C00085FFB2
:107DD000FCCF9093C6002F5F3F4F30930701209355
:107DE00006014F5F5F4F4617570718F38091C00099
:107DF00085FDE5CE8091C00085FFF8CFE0CE81E023
:107E00000E94C73C67CE0E94763C803209F08CCE3F
:107E10008091C00085FFFCCFF092C6008091C00029
:107E200085FFFCCFE092C6008091C00085FFFCCFAB
:107E3000D092C6008091C00085FFFCCFC092C600E2
:107E40008091C00085FFFCCFB092C60043CEE09188
:107E50000601F091070194918091C00085FFFCCF4D
:107E60009093C6009CCF80E10E94C73C33CE0E9415
:107E7000763C0E94763C182F0E94763C112309F430
:107E800083C0113009F484C08FE00E94C73C22CE29
:107E900080910C02816080930C02E5CE80910C02EF
:107EA000816080930C0259CF809107018823880F4D
:107EB000880B8A2180930B02809106019091070123
:107EC000880F991F90930701809306018091080203
:107ED00080FF09C080910802909109020196909359
:107EE000090280930802F894F999FECF1127E091D6
:107EF0000601F0910701C8E0D1E08091080290915D
:107F00000902103091F40091570001700130D9F34B
:107F100003E000935700E89500915700017001308D
:107F2000D9F301E100935700E89509901990009169
:107F3000570001700130D9F301E000935700E89534
:107F40001395103498F011270091570001700130FB
:107F5000D9F305E000935700E895009157000170B0
:107F60000130D9F301E100935700E895329602976A
:107F700009F0C7CF103011F00296E5CF112480919F
:107F8000C00085FFB9CEBCCE8EE10E94C73CA2CD19
:0C7F900085E90E94C73C9ECDF894FFCF0D
:027F9C00800063
:040000030000780081
:00000001FF
